:1000000009C010C00FC00EC00DC00CC00BC00AC08C
:1000100009C008C011271FBFCFE5D0E0DEBFCDBFAC
:1000200027D0DEC0EDCF0898000009980000089A9C
:100030000000099A00000895089A0000099800003D
:1000400008980000089548E0442369F0882314F4D8
:10005000089801C0089A880F000009980000099AC2
:1000600000004150F1CF089809980000099A0895BE
:1000700047EA51E641505040E9F700C00000D3DFA5
:1000800088E7E1DF80E0DFDFC0E0C03240F4EC2F42
:10009000F0E0E451FD4B8081D6DFCF5FF6CFCCDFBF
:1000A000C2DF88E7D0DF80E4CEDFC0E0CC2394F06D
:1000B00080E0C9DF80E0C7DF80E0C5DF80E0C3DF2C
:1000C00080E0C1DF80E0BFDF80E0BDDF80E0BBDF3C
:1000D000CF5FECCFB1DFA7DF88E7B5DF80E0B3DF2C
:1000E00081E2B1DF81E3AFDF8CE4ADDF82E2ABDF41
:1000F00080E0A9DF83E0A7DF9FDF95DF88E7A3DF4C
:1001000080E4A1DFC0E0C03740F4EC2FF0E0E45819
:10011000FD4B808198DFCF5FF6CF8EDF84DF88E7ED
:1001200092DF80E090DF81E28EDF80E28CDF87E685
:100130008ADF82E288DF84E086DF85E084DF7CDF9F
:1001400072DF88E780DF80E47EDFC0E0C03940F402
:10015000EC2FF0E0E451FE4B808175DFCF5FF6CFEE
:100160006BDF61DF88E76FDF80E06DDF81E26BDFEF
:1001700080E069DF8FE767DF82E265DF87E063DFCA
:1001800087E061DF59DF4FDF88E75DDF80E45BDF19
:10019000D0E0D03168F4C0E0C83040F4EC2FF0E09B
:1001A000EC51FE4B80814FDFCF5FF6CFDF5FF1CFA9
:1001B00043DF39DF88E747DF80E045DF86E243DF62
:1001C00080E041DF87E03FDF85E03DDF87E03BDF28
:1001D00080E039DF8FEF37DF8FE235DF2DDFFFCFB4
:0401E000F894FFCFC1
:1001E40086C2E0F0783C1E0EC0C000000000000093
:1001F40080C0C040C0C080000000000080C0C0803B
:1002040000000000C0C04040C08080000000C0C0AA
:100214000000C0C080000000C0C000000080C0C05A
:100224004040C0800000000000000000000000000A
:10023400FFFF80808080003F7FC0C080C0C07F3FC0
:100244000080F07E1F11111F7EF08000FFFF808070
:10025400C0407F3F0000FFFF0000FFFF030E1C7043
:10026400FFFF00003F7FC0C084C4FC7C0000C0C00E
:100274000000C0C00000C0C0008080C0E0E0F0F01A
:10028400F8F87C7E7E7FFFFEFEFC78787070E0E0FC
:10029400C0808000FFFFFFFFFF3F1F0703C0E0F89F
:1002A4007C3F0F0781C0F0F8FEFFFFFFFFFFFFFF59
:1002B400FFFFFFFFFFFFFF7F1F0F0381E0F0FC3E06
:1002C4001F0703C0E0F8FCFFFFFFFFFF000101036D
:1002D40007070E0E1E1E3F7F7FFFFE7E7E3E1F1F02
:1002E4000F0F070703010100AED580A83FD30040DC
:1002F4008D142000A1C8DA128180D9A1DB402EA47C
:08030400A622000721007FAFD3
:00000001FF
